{
  "_format": "hh-sol-artifact-1",
  "contractName": "CryptoSafeFactory",
  "sourceName": "contracts/CryptoSafeFactory.sol",
  "abi": [
    {
      "inputs": [],
      "stateMutability": "nonpayable",
      "type": "constructor"
    },
    {
      "inputs": [
        {
          "internalType": "address",
          "name": "_tokenAddress",
          "type": "address"
        },
        {
          "internalType": "uint256",
          "name": "_amount",
          "type": "uint256"
        }
      ],
      "name": "approveTokenToSafe",
      "outputs": [],
      "stateMutability": "nonpayable",
      "type": "function"
    },
    {
      "inputs": [
        {
          "internalType": "address",
          "name": "_oldAddress",
          "type": "address"
        }
      ],
      "name": "changeSafeOwner",
      "outputs": [],
      "stateMutability": "nonpayable",
      "type": "function"
    },
    {
      "inputs": [],
      "name": "createRecoverableSafe",
      "outputs": [],
      "stateMutability": "nonpayable",
      "type": "function"
    },
    {
      "inputs": [
        {
          "internalType": "uint256",
          "name": "",
          "type": "uint256"
        }
      ],
      "name": "cryptoSafeList",
      "outputs": [
        {
          "internalType": "contract CryptoSafe",
          "name": "",
          "type": "address"
        }
      ],
      "stateMutability": "view",
      "type": "function"
    },
    {
      "inputs": [
        {
          "internalType": "address",
          "name": "_tokenAddress",
          "type": "address"
        },
        {
          "internalType": "uint256",
          "name": "_amount",
          "type": "uint256"
        }
      ],
      "name": "depositTokenToSafe",
      "outputs": [],
      "stateMutability": "nonpayable",
      "type": "function"
    },
    {
      "inputs": [],
      "name": "getSafeBackupOwner",
      "outputs": [
        {
          "internalType": "address",
          "name": "",
          "type": "address"
        }
      ],
      "stateMutability": "view",
      "type": "function"
    },
    {
      "inputs": [],
      "name": "getSafeContract",
      "outputs": [
        {
          "internalType": "address",
          "name": "",
          "type": "address"
        }
      ],
      "stateMutability": "view",
      "type": "function"
    },
    {
      "inputs": [
        {
          "internalType": "address",
          "name": "_tokenAddress",
          "type": "address"
        }
      ],
      "name": "getTokenAllowance",
      "outputs": [
        {
          "internalType": "uint256",
          "name": "",
          "type": "uint256"
        }
      ],
      "stateMutability": "view",
      "type": "function"
    },
    {
      "inputs": [
        {
          "internalType": "address",
          "name": "_newBackupOwner",
          "type": "address"
        }
      ],
      "name": "setSafeBackupOwner",
      "outputs": [],
      "stateMutability": "nonpayable",
      "type": "function"
    },
    {
      "inputs": [
        {
          "internalType": "address",
          "name": "",
          "type": "address"
        }
      ],
      "name": "userSafeAddress",
      "outputs": [
        {
          "internalType": "address",
          "name": "",
          "type": "address"
        }
      ],
      "stateMutability": "view",
      "type": "function"
    },
    {
      "inputs": [
        {
          "internalType": "address",
          "name": "_tokenAddress",
          "type": "address"
        },
        {
          "internalType": "uint256",
          "name": "_amount",
          "type": "uint256"
        }
      ],
      "name": "withdrawTokenfromSafe",
      "outputs": [],
      "stateMutability": "nonpayable",
      "type": "function"
    }
  ],
  "bytecode": "0x608060405234801561001057600080fd5b506117f1806100206000396000f3fe608060405234801561001057600080fd5b50600436106100a95760003560e01c8063a38c5e0b11610071578063a38c5e0b1461013e578063a5b599e41461015a578063d9a227031461018a578063e1c0341d146101a8578063edb518fc146101d8578063f54e06a9146101f4576100a9565b806327c9ca2e146100ae57806330984466146100b85780636a3b2982146100d4578063769ccde3146101045780639bce8dc514610120575b600080fd5b6100b6610210565b005b6100d260048036038101906100cd9190610b71565b61032c565b005b6100ee60048036038101906100e99190610bb1565b610416565b6040516100fb9190610c3d565b60405180910390f35b61011e60048036038101906101199190610b71565b610455565b005b61012861053d565b6040516101359190610c67565b60405180910390f35b61015860048036038101906101539190610c82565b6105a4565b005b610174600480360381019061016f9190610c82565b610718565b6040516101819190610cbe565b60405180910390f35b610192610801565b60405161019f9190610c67565b60405180910390f35b6101c260048036038101906101bd9190610c82565b6108db565b6040516101cf9190610c67565b60405180910390f35b6101f260048036038101906101ed9190610c82565b61090e565b005b61020e60048036038101906102099190610b71565b6109f5565b005b60003360405161021f90610acb565b6102299190610c67565b604051809103906000f080158015610245573d6000803e3d6000fd5b5090506000819080600181540180825580915050600190039060005260206000200160009091909190916101000a81548173ffffffffffffffffffffffffffffffffffffffff021916908373ffffffffffffffffffffffffffffffffffffffff16021790555080600160003373ffffffffffffffffffffffffffffffffffffffff1673ffffffffffffffffffffffffffffffffffffffff16815260200190815260200160002060006101000a81548173ffffffffffffffffffffffffffffffffffffffff021916908373ffffffffffffffffffffffffffffffffffffffff16021790555050565b60008290508073ffffffffffffffffffffffffffffffffffffffff166323b872dd33600160003373ffffffffffffffffffffffffffffffffffffffff1673ffffffffffffffffffffffffffffffffffffffff16815260200190815260200160002060009054906101000a900473ffffffffffffffffffffffffffffffffffffffff16856040518463ffffffff1660e01b81526004016103cd93929190610cd9565b6020604051808303816000875af11580156103ec573d6000803e3d6000fd5b505050506040513d601f19601f820116820180604052508101906104109190610d48565b50505050565b6000818154811061042657600080fd5b906000526020600020016000915054906101000a900473ffffffffffffffffffffffffffffffffffffffff1681565b60008290508073ffffffffffffffffffffffffffffffffffffffff1663095ea7b3600160003373ffffffffffffffffffffffffffffffffffffffff1673ffffffffffffffffffffffffffffffffffffffff16815260200190815260200160002060009054906101000a900473ffffffffffffffffffffffffffffffffffffffff16846040518363ffffffff1660e01b81526004016104f4929190610d75565b6020604051808303816000875af1158015610513573d6000803e3d6000fd5b505050506040513d601f19601f820116820180604052508101906105379190610d48565b50505050565b6000600160003373ffffffffffffffffffffffffffffffffffffffff1673ffffffffffffffffffffffffffffffffffffffff16815260200190815260200160002060009054906101000a900473ffffffffffffffffffffffffffffffffffffffff16905090565b6000600160008373ffffffffffffffffffffffffffffffffffffffff1673ffffffffffffffffffffffffffffffffffffffff16815260200190815260200160002060009054906101000a900473ffffffffffffffffffffffffffffffffffffffff16905060008173ffffffffffffffffffffffffffffffffffffffff1663a6f9dae1336040518263ffffffff1660e01b81526004016106439190610c67565b6020604051808303816000875af1158015610662573d6000803e3d6000fd5b505050506040513d601f19601f820116820180604052508101906106869190610d48565b905060011515811515036107135781600160003373ffffffffffffffffffffffffffffffffffffffff1673ffffffffffffffffffffffffffffffffffffffff16815260200190815260200160002060006101000a81548173ffffffffffffffffffffffffffffffffffffffff021916908373ffffffffffffffffffffffffffffffffffffffff1602179055505b505050565b6000808290508073ffffffffffffffffffffffffffffffffffffffff1663dd62ed3e33600160003373ffffffffffffffffffffffffffffffffffffffff1673ffffffffffffffffffffffffffffffffffffffff16815260200190815260200160002060009054906101000a900473ffffffffffffffffffffffffffffffffffffffff166040518363ffffffff1660e01b81526004016107b8929190610d9e565b602060405180830381865afa1580156107d5573d6000803e3d6000fd5b505050506040513d601f19601f820116820180604052508101906107f99190610ddc565b915050919050565b600080600160003373ffffffffffffffffffffffffffffffffffffffff1673ffffffffffffffffffffffffffffffffffffffff16815260200190815260200160002060009054906101000a900473ffffffffffffffffffffffffffffffffffffffff1690508073ffffffffffffffffffffffffffffffffffffffff16633af8e4ab6040518163ffffffff1660e01b8152600401602060405180830381865afa1580156108b1573d6000803e3d6000fd5b505050506040513d601f19601f820116820180604052508101906108d59190610e1e565b91505090565b60016020528060005260406000206000915054906101000a900473ffffffffffffffffffffffffffffffffffffffff1681565b6000600160003373ffffffffffffffffffffffffffffffffffffffff1673ffffffffffffffffffffffffffffffffffffffff16815260200190815260200160002060009054906101000a900473ffffffffffffffffffffffffffffffffffffffff1690508073ffffffffffffffffffffffffffffffffffffffff166310ac988733846040518363ffffffff1660e01b81526004016109ad929190610d9e565b6020604051808303816000875af11580156109cc573d6000803e3d6000fd5b505050506040513d601f19601f820116820180604052508101906109f09190610d48565b505050565b6000600160003373ffffffffffffffffffffffffffffffffffffffff1673ffffffffffffffffffffffffffffffffffffffff16815260200190815260200160002060009054906101000a900473ffffffffffffffffffffffffffffffffffffffff1690508073ffffffffffffffffffffffffffffffffffffffff16630a6d17b083856040518363ffffffff1660e01b8152600401610a94929190610e4b565b600060405180830381600087803b158015610aae57600080fd5b505af1158015610ac2573d6000803e3d6000fd5b50505050505050565b61094780610e7583390190565b600080fd5b600073ffffffffffffffffffffffffffffffffffffffff82169050919050565b6000610b0882610add565b9050919050565b610b1881610afd565b8114610b2357600080fd5b50565b600081359050610b3581610b0f565b92915050565b6000819050919050565b610b4e81610b3b565b8114610b5957600080fd5b50565b600081359050610b6b81610b45565b92915050565b60008060408385031215610b8857610b87610ad8565b5b6000610b9685828601610b26565b9250506020610ba785828601610b5c565b9150509250929050565b600060208284031215610bc757610bc6610ad8565b5b6000610bd584828501610b5c565b91505092915050565b6000819050919050565b6000610c03610bfe610bf984610add565b610bde565b610add565b9050919050565b6000610c1582610be8565b9050919050565b6000610c2782610c0a565b9050919050565b610c3781610c1c565b82525050565b6000602082019050610c526000830184610c2e565b92915050565b610c6181610afd565b82525050565b6000602082019050610c7c6000830184610c58565b92915050565b600060208284031215610c9857610c97610ad8565b5b6000610ca684828501610b26565b91505092915050565b610cb881610b3b565b82525050565b6000602082019050610cd36000830184610caf565b92915050565b6000606082019050610cee6000830186610c58565b610cfb6020830185610c58565b610d086040830184610caf565b949350505050565b60008115159050919050565b610d2581610d10565b8114610d3057600080fd5b50565b600081519050610d4281610d1c565b92915050565b600060208284031215610d5e57610d5d610ad8565b5b6000610d6c84828501610d33565b91505092915050565b6000604082019050610d8a6000830185610c58565b610d976020830184610caf565b9392505050565b6000604082019050610db36000830185610c58565b610dc06020830184610c58565b9392505050565b600081519050610dd681610b45565b92915050565b600060208284031215610df257610df1610ad8565b5b6000610e0084828501610dc7565b91505092915050565b600081519050610e1881610b0f565b92915050565b600060208284031215610e3457610e33610ad8565b5b6000610e4284828501610e09565b91505092915050565b6000604082019050610e606000830185610caf565b610e6d6020830184610c58565b939250505056fe608060405234801561001057600080fd5b50604051610947380380610947833981810160405281019061003291906100db565b806000806101000a81548173ffffffffffffffffffffffffffffffffffffffff021916908373ffffffffffffffffffffffffffffffffffffffff16021790555050610108565b600080fd5b600073ffffffffffffffffffffffffffffffffffffffff82169050919050565b60006100a88261007d565b9050919050565b6100b88161009d565b81146100c357600080fd5b50565b6000815190506100d5816100af565b92915050565b6000602082840312156100f1576100f0610078565b5b60006100ff848285016100c6565b91505092915050565b610830806101176000396000f3fe608060405234801561001057600080fd5b50600436106100625760003560e01c80630a6d17b01461006757806310ac9887146100835780633af8e4ab146100b35780636e947298146100d15780638da5cb5b146100ef578063a6f9dae11461010d575b600080fd5b610081600480360381019061007c91906104c6565b61013d565b005b61009d60048036038101906100989190610506565b610224565b6040516100aa9190610561565b60405180910390f35b6100bb610300565b6040516100c8919061058b565b60405180910390f35b6100d9610326565b6040516100e691906105b5565b60405180910390f35b6100f761032e565b604051610104919061058b565b60405180910390f35b610127600480360381019061012291906105d0565b610352565b6040516101349190610561565b60405180910390f35b60008190508073ffffffffffffffffffffffffffffffffffffffff1663a9059cbb60008054906101000a900473ffffffffffffffffffffffffffffffffffffffff16856040518363ffffffff1660e01b815260040161019d9291906105fd565b6020604051808303816000875af11580156101bc573d6000803e3d6000fd5b505050506040513d601f19601f820116820180604052508101906101e09190610652565b61021f576040517f08c379a0000000000000000000000000000000000000000000000000000000008152600401610216906106dc565b60405180910390fd5b505050565b60008060009054906101000a900473ffffffffffffffffffffffffffffffffffffffff1673ffffffffffffffffffffffffffffffffffffffff168373ffffffffffffffffffffffffffffffffffffffff16146102b5576040517f08c379a00000000000000000000000000000000000000000000000000000000081526004016102ac9061076e565b60405180910390fd5b81600160006101000a81548173ffffffffffffffffffffffffffffffffffffffff021916908373ffffffffffffffffffffffffffffffffffffffff1602179055506001905092915050565b600160009054906101000a900473ffffffffffffffffffffffffffffffffffffffff1681565b600047905090565b60008054906101000a900473ffffffffffffffffffffffffffffffffffffffff1681565b6000600160009054906101000a900473ffffffffffffffffffffffffffffffffffffffff1673ffffffffffffffffffffffffffffffffffffffff168273ffffffffffffffffffffffffffffffffffffffff16146103e4576040517f08c379a00000000000000000000000000000000000000000000000000000000081526004016103db906107da565b60405180910390fd5b816000806101000a81548173ffffffffffffffffffffffffffffffffffffffff021916908373ffffffffffffffffffffffffffffffffffffffff16021790555060019050919050565b600080fd5b6000819050919050565b61044581610432565b811461045057600080fd5b50565b6000813590506104628161043c565b92915050565b600073ffffffffffffffffffffffffffffffffffffffff82169050919050565b600061049382610468565b9050919050565b6104a381610488565b81146104ae57600080fd5b50565b6000813590506104c08161049a565b92915050565b600080604083850312156104dd576104dc61042d565b5b60006104eb85828601610453565b92505060206104fc858286016104b1565b9150509250929050565b6000806040838503121561051d5761051c61042d565b5b600061052b858286016104b1565b925050602061053c858286016104b1565b9150509250929050565b60008115159050919050565b61055b81610546565b82525050565b60006020820190506105766000830184610552565b92915050565b61058581610488565b82525050565b60006020820190506105a0600083018461057c565b92915050565b6105af81610432565b82525050565b60006020820190506105ca60008301846105a6565b92915050565b6000602082840312156105e6576105e561042d565b5b60006105f4848285016104b1565b91505092915050565b6000604082019050610612600083018561057c565b61061f60208301846105a6565b9392505050565b61062f81610546565b811461063a57600080fd5b50565b60008151905061064c81610626565b92915050565b6000602082840312156106685761066761042d565b5b60006106768482850161063d565b91505092915050565b600082825260208201905092915050565b7f556e61626c6520746f207472616e736665720000000000000000000000000000600082015250565b60006106c660128361067f565b91506106d182610690565b602082019050919050565b600060208201905081810360008301526106f5816106b9565b9050919050565b7f596f752063616e6e6f74206368616e6765206261636b7570206f776e6572207260008201527f6f6c650000000000000000000000000000000000000000000000000000000000602082015250565b600061075860238361067f565b9150610763826106fc565b604082019050919050565b600060208201905081810360008301526107878161074b565b9050919050565b7f596f752063616e6e6f74206368616e6765206f776e657220726f6c6500000000600082015250565b60006107c4601c8361067f565b91506107cf8261078e565b602082019050919050565b600060208201905081810360008301526107f3816107b7565b905091905056fea2646970667358221220a2cdbdfcccee34fd70c2e4161a467f0496ea342bac8eb8aec537f34a42a634da64736f6c63430008110033a2646970667358221220aa804d78e6800dd5595b90be11d059d87fe78b3924038dbfdb241f5fb18f1db964736f6c63430008110033",
  "linkReferences": {},
  "deployedLinkReferences": {}
}